:020000005F2877
:100006008316031386018701831286018701013057
:10001600A0000030A1008030F00080302106700280
:10002600031D17282008093C031C5E28A201A30112
:100036008030F000803023067002031D2428220839
:10004600093C031C42288316870183122208870075
:100056000B30FB002630FC005D30FD00FD0B312827
:10006600FC0B3128FB0B3128000000000708093A79
:10007600031D3E288701A20A0319A30A1B2883161B
:1000860086018312200886000B30FB002630FC0018
:100096005D30FD00FD0B4D28FC0B4D28FB0B4D285C
:1000A600000000000608093A031D5A288601A00A26
:0800B6000319A10A0E2808003D
:0600BE0003205F28612809
:02400E007A3BFB
:00000001FF
